:02000000082FC7
:06000600000000000800EC
:0E000C00213083120313FD00FD0B0A280800AB
:10001A000F3083120313FC004730FD00FD0B132839
:0A002A00FC0B132800000000080082
:1000340083160313B61B21288312881323288312E3
:1000440088178316361B2928831208132B2883123A
:1000540008178316B61A312883128812332883129C
:1000640088168316361A3928831208123B288312FD
:1000740008165A183F28081440280810881403202A
:1000840088108316B6194928831288134B288312C3
:10009400881783163619512883120813532883129C
:1000A40008178316B6185928831288125B288312FE
:1000B400881683163618612883120812632883125F
:1000C40008165A186728081468280810881403208A
:0E00D40088105A1C6F280D2070280620080086
:0E00E200F201F101F001F801F3010030080015
:1000F0007B15FB1F82280130F300F201F101F001B2
:08010000FA0DF20CFF300800BB
:08010800FA1FF2130030080099
:10011000FB14FB1F9228FF30F300F200F100F00007
:08012000FA0DF20CFF3008009B
:1001280083120313FD01F8017008031900347406E3
:10013800FA00FA1BFD09FB01F41FA428F409F40ACC
:10014800F01FA828F009F00A70087404FA00FA1BD6
:10015800CC287408F802F00D700DF80D7408F80733
:10016800F00D0630FC00700DF80D74087018F802D8
:10017800701CF807F00DFC0BB728701CF8077B18EB
:10018800DA28FD1F0034F009F00AF809F80A0034EB
:10019800F41FD728F01BD4287008F800F001C528F0
:1001A800F001F00A0034F009FB0AAD28F80A7408D7
:1001B8007802031DC528F801F00AF01FC528FF348E
:0201C80008002D
:1001CA00831603133408F2007208F100F20A3508A4
:1001DA00F000B50A700884000008F0007108840075
:1001EA00700880007108840000080319FD28E928B6
:0601FA003408F0000800CB
:1002000083120313FA017308031D7A147708031D80
:10021000FA147A0803194C29033A031917297A1892
:100220001429F61F4A294829F21F48294A29720829
:100230008039FA00F21376088039F6137A0603192A
:1002400025297A08031948294A29770873020319CE
:100250002C29031C402944297608720203193329EA
:10026000031C402944297508710203193A29031C0B
:10027000402944297408700203194C2903184429A1
:10028000FA0803194A294829FA08031948294A296A
:1002900003140800031008000314031508000800E5
:1002A00083120313FB017308031D77080319A729A1
:1002B00072087606FA007708F3077E30031C64297B
:1002C000F3020318AA296729F302031CAD29720857
:1002D000F8007108FC007008FD00F817F61703100D
:1002E000F201F101F0011830A0007D1C8129740891
:1002F000F00775080318750FF10776080318760FD5
:10030000F207F20CF10CF00CF80CFC0CFD0C0310D5
:10031000A00B7529F21B9129F80DF00DF10DF20DCE
:10032000F3037B1B701CA329F81FA329F00A0319F0
:10033000F10A0319F20A031DA329F20CF10CF00CC7
:10034000F30A0319AA29FA1FF2130030AF2901306A
:100350007120AF2902308820AF29043078200000B6
:02036000080093
:06036200FB15FF3008004E
:10036800831603139818BA290000B4293408831295
:0403780099000800E0
:10037C00A0017208031DD3297108F2007008F10066
:10038C00F001A0157208031DD3297108F200F101C8
:10039C00A011201672080319E1292008F302031D8D
:1003AC00031CE5290310F21BE929F00DF10DF20DE8
:1003BC00F30BD929E5290130FC007120EC2902301E
:0E03CC00FC007820EC290430FC00842008009E
:1003DA00831203135A1083163408B6001A205A14CB
:0203EA00080009
:1003EC0083160313B201B30183126B088316AE009C
:1003FC0083126C088316AF0083126D088316B0004D
:10040C0083126E088316B1003108FF3A031D182AB7
:10041C003008FF3A031D182A2F08FF3A031D182A2B
:10042C002E08FF3A031D242A83126F088316B4008A
:10043C002230B500E5200330F000192C0130AC005F
:10044C00B01F342A80303006F0007008B000AC0ABF
:10045C0083126F0884002D308000EF0A0030F0000A
:10046C0083163106031D442A70083006031D442AE6
:10047C0070082F06031D442A2E08003A031D4F2A2C
:10048C0083126F088316B4002A30B500E520F00102
:10049C00192C3108FF3A031D5D2A3008003A031D60
:1004AC005D2A2F08003A031D5D2A2E08003A031D11
:1004BC00692A83126F088316B4002630B500E52034
:1004CC002C08F000192C0030F4000030F50000303E
:1004DC00F6007F30F7002E08F0002F08F1003008EE
:1004EC00F2003108F3000021013003180030F00055
:1004FC00700803199E2A83162E08F0002F08F100AD
:10050C003008F2003108F3000030F4000030F50040
:10051C002030F6008230F700502170088316AE00B0
:10052C007108AF007208B0007308B100B303692AF8
:10053C0083160030F4000030F5002030F6008230D5
:10054C00F7002E08F0002F08F1003008F2003108F7
:10055C00F30000210130031C0030F0007008031977
:10056C00D42A83162E08F0002F08F1003008F20070
:10057C003108F300CD30F400CC30F5004C30F600EF
:10058C007B30F700502170088316AE007108AF0065
:10059C007208B0007308B100B30A9E2A8316FF30AC
:1005AC002E05F800FF302F05F9007F303005FA00DA
:1005BC0000303105FB007808F4007908F5007A0862
:1005CC00F6007B08F700F40DF50DF60DF70D741021
:1005DC0000302E05F00000302F05F1000030300502
:1005EC00F200FF303105F3007008AE007108AF0067
:1005FC007208B0007308B10074082E04F00075087E
:10060C002F04F10076083004F20077083104F3006F
:10061C007008AE007108AF007208B0007308B1002A
:10062C007F303102F0007008AD000130B10070086D
:10063C00F4002E08F0002F08F1003008F200310809
:10064C00F30074080319312BF00DF10DF20DF30DBD
:10065C007010FF3E282B7008AE007108AF007208B6
:10066C00B0007308B1003108303EF00083126F08FF
:10067C00840070088000EF0A803083163306F00087
:10068C008030013A7002031C542B8030063AF00083
:10069C00803033067002031C542B5D2B83126F08C1
:1006AC0084002E308000EF0A01308316B200063031
:1006BC00AD002D08003A0319BF2BB1012E08F00034
:1006CC002F08F1003008F2003108F300F00DF10DA5
:1006DC00F20DF30D7010F00DF10DF20DF30D701015
:1006EC002E08F0072F0803182F0FF10730080318F6
:1006FC00300FF20731080318310FF3077008AE0002
:10070C007108AF007208B0007308B1002E08F00039
:10071C002F08F1003008F2003108F300F00DF10D54
:10072C00F20DF30D70107008AE007108AF00720876
:10073C00B0007308B1003108303EF00083126F082E
:10074C00840070088000EF0A83163208003A031DFB
:10075C00BD2BB3033308003A031DBD2B83126F0866
:10076C0084002E308000EF0A01308316B200AD03F6
:10077C005F2BFF3083126F0784000008303A031D93
:10078C00C92BEF03BF2BFF306F07840000082E3AF4
:10079C00031DD12BEF0383163308003A0319142CD5
:1007AC0083126F08840065308000EF0A8030831656
:1007BC003306F0008030003A70020318EF2B8312DE
:1007CC006F0884002D308000EF0A83163308003C3C
:1007DC00B3003308AD008030093AF00080303306A6
:1007EC0070020318052C0A30F4002D08F000942038
:1007FC003030F0076F08840070088000EF0A0A3070
:10080C00F40083162D08F00094207808F0003030A6
:10081C00F0076F08840070088000EF0A83126F08DD
:08082C0084008001F0010800C6
:100834002C2C803083120313EB003F2CC030EB00D0
:100844003F2C9430EB003F2CD430EB003F2C803015
:10085400EB003F2C831203136B08013A03191B2C82
:100864006B08023A0319202C6B08033A0319232C52
:100874006B08043A0319262C292C6C03F0006B082E
:10088400F0077008EB005A1470088316B6001A209B
:0E0894005A106D088316B6001A205A14080078
:1008A200831603138810081008128812081388137D
:1008B20083128810081088130813881208120D205A
:1008C2000D200D20881608168814032088100D208C
:1008D2008814032088100D208814032088100D200E
:1008E20008128814032088100D2088140320881011
:1008F200881288178814032088100D208813081680
:1009020088140320881008128814032088100D20F0
:1009120088140320881008168814032088100D20DC
:1009220008128814032088108817081788160816DA
:0C0932008814032088100D205A140800BF
:10093E00FF3083120313D700FF30D800FF30D900E9
:10094E00FF309F01C0309F042109F000700883160C
:0C095E009F051F179F1783121F1408002D
:10096A000E3083120313FD00FD0BB92C00000800A2
:10097A00831203137008F8007108F000F101F20104
:10098A00F301FB01FC019630F300FA017008F10053
:0C099A007808F000F801F201BE2108000E
:1009A600E52C803083120313EB00F82CC030EB00EB
:1009B600F82C9430EB00F82CD430EB00F82C803077
:1009C600EB00F82C831203136B08013A0319D42C9D
:1009D6006B08023A0319D92C6B08033A0319DC2C6D
:1009E6006B08043A0319DF2CE22C6C03F0006B0849
:1009F600F0077008EB0070088316B6001A205A102C
:100A0600EE016E086D07840000080319132D6E08A9
:100A16006D07840000088316B400ED21EE0A042D4C
:040A26005A14080056
:100A2A00831203131A08F100981C1D2D18121816A8
:060A3A007108F000080045
:100A400083120313ED016B0884000008EC006C08AE
:100A5000003A0319362D6C088316B400B421ED0A50
:0E0A60006D086B0784000008EC00272D0800CD
:100A6E00831203137408003A031D522D7508003AC1
:100A7E00031D522D7608003A031D522D7708003AB9
:100A8E00031D522DFF30F000FF30F1007F30F200D9
:100A9E00FF30F300ED2D8312031377080319E12DB8
:100AAE0073080319E42D720876068039FA00F217DE
:100ABE00F617A0017208F8007108FC007008FD001E
:100ACE007408FD027508031C750FFC027608031CE2
:100ADE00760FF802F801FC01FD01031C7D2D0310B9
:100AEE00F20CF10CF00CF80C0130A0007708F302B8
:100AFE00031C872D7E302007F3070318E72D8C2D5E
:100B0E007E302007F307031CEA2D1830FA07FD0D7F
:100B1E00FC0DF80DF00DF10DF20DA00D7408F002A4
:100B2E007508031C750FF1027608031C760FF2028E
:100B3E00760DA004201CA52D7D14B02D7408F00791
:100B4E0075080318750FF10776080318760AF20771
:100B5E007D10FA031F307A05031D8E2D7B1B7D1C25
:100B6E00D72D0310F00DF10DF20DA00D7408F0024B
:100B7E007508031C750FF1027608031C760FF2023E
:100B8E00760D20040139FD070318FC0A0319F80A33
:100B9E00031DD72DF80CFC0CFD0CF30A0319E72DE1
:100BAE00FA1FF8137808F2007C08F1007D08F000B7
:100BBE000030EC2D0130B121EC2D02307120EC2DE6
:0E0BCE0004308820EC2D08307820000008004C
:0E0BDC008312031356088A0055088200080091
:100BEA00831603139816903083129800831687177A
:100BFA00071383128C1E042E1A08F000FE2D08001B
:0E0C0A000030831203138C1A0130F000080032
:100C1800EE258A110A128000840AD50A0319D60A19
:080C2800F003031D0C2E08006F
:100C3000831203139F01C0309F042109F000700844
:100C400083169F051F179F1783125D08F000F00D94
:100C50007010F00D7010F00D701070089F041F14CC
:100C6000B5241F151F1D362E0000322E1F101E0822
:100C7000F100F00183161E08F0040030F1040800B2
:100C8000063083120313FB001330FC00AD30FD006F
:100C9000FD0B482EFC0B482EFB0B482E00000000DD
:100CA0000526700803195B2E15257008613A031D8F
:080CB0005B2E061786130800F5
:100CB800831603130514860188018312051086170D
:100CC800061388019F2451240430831699001815AF
:100CD800F5250230FB000430FC00BA30FD00FD0BA6
:100CE800732EFC0B732EFB0B732E00000130831642
:100CF800B6001A200C308316B6001A200130EB001B
:100D08000130EC003930ED00D3240230EB00023022
:100D1800EC004930ED00D3241530FB004B30FC00CB
:100D2800BE30FD00FD0B962EFC0B962EFB0B962E6F
:0C0D3800000001308316B6001A200800ED
:100D4400831203135D08F0005E08F100BD24003037
:100D5400F4004030F5001C30F6008130F7005021DB
:100D64000030F4000030F5002030F6008230F70047
:100D740037257008EB007108EC007208ED00730869
:100D8400EE00A030EF00F62183160313200883122F
:100D9400DF00831621088312E000831622088312E1
:100DA400E100831623088312E200831624088312C9
:100DB400E3000130EB000130EC002C30ED00D324D3
:100DC4000230EB000130EC005F30ED00D324023040
:100DD400EB000630EC00DF30ED001A240230EB00AB
:100DE4000730EC004330ED001A245F30EB0020257F
:100DF4000230FB000430FC00BA30FD00FD0B002F74
:0C0E0400FC0B002FFB0B002F000008006F
:100E100060275C26DD01182670088312DB0071084C
:100E2000DC007008DD007108DE00A2260630FB0041
:100E30001330FC00AD30FD00FD0B1C2FFC0B1C2FF4
:0E0E4000FB0B1C2F0000000040260A2F262F5F
:100EC00021308400343083120313F0002C30D5001D
:080ED0000730D6000C260800D3
:020E58000F3455
:080E5A004E3461344E340034C3
:080E620049344E3446340034DB
:040E6A0030340034EC
:100E6E00543465346D347034653472346134743492
:0A0E7E007534723465343A340034E0
:100E880047345334453441343234203432343034E6
:100E9800313438342D343234303431343934003448
:100EA80054346834653472346D346F346D34653459
:080EB800743472346534003417
:02400E007A3BFB
:00000001FF
